:020000000328D3
:1000060083160313860187018801890183128601FD
:1000160087018801890106148610071587110816BD
:100026008812091489102930FB009630FC007F30B5
:10003600FD00FD0B1C28FC0B1C28FB0B1C280614C2
:100046008614071187110816881609108910293099
:10005600FB009630FC007F30FD00FD0B3028FC0BCA
:100066003028FB0B30280610861407158715081252
:100076008816091489142930FB009630FC007F305D
:10008600FD00FD0B4428FC0B4428FB0B44280614FA
:100096008614071587150812881209108910293049
:1000A600FB009630FC007F30FD00FD0B5828FC0B52
:1000B6005828FB0B582806108614071187150812B6
:1000C6008816091089142930FB009630FC007F3011
:1000D600FD00FD0B6C28FC0B6C28FB0B6C280E2816
:0200E60073287D
:02400E004A2F37
:00000001FF
